S00E00004C503464736D2E7372656302
S113000019C033C032C031C030C02FC02EC02DC083
S11300102CC02BC02AC003C9CEC827C026C025C007
S113002024C023C022C0A8C720C0A9C01EC01DC0B0
S11300301CC01BC011241FBECFEFD4E0DEBFCDBF58
S113004012E0A0E0B1E0EAE9FBE102C005900D9204
S1130050AE3DB107D9F724E0AEEDB2E001C01D9288
S1130060AF34B207E1F776D496CDCACF2FE033E0B0
S113007044E060E072E080E090E0F901E80FF91FED
S113008071836083089688349105B9F741502E5FD7
S11300903F4F4111F0CF10920C0310920E031092B7
S11300A00D0383E380937E00E0910C03F0E0E65EB1
S11300B0FE4F8081806480937C008DEA80937A0077
S11300C085E080937B00089580910C03823029F4AD
S11300D081E090910E03923009F080E081700895E0
S11300E0853028F48091000190910101089580E009
S11300F090E00895CF93DF93A2E0B3E0EFE0F3E064
S113010040E050E020E030E080E090E0EF01C40FF8
S1130110D51F68857985860F971F0990D881C02DD2
S11301206C1B7D0B260F371F485F5F4F4034510512
S113013069F743E0959587954A95E1F735952795B5
S113014035952795820F931F97FD07C0811524E0ED
S113015092072CF08FEF93E002C080E090E08D9343
S11301609D93EF01C05CDF4F8881998181939193C6
S113017083E0E731F80721F6DF91CF9108951F92CC
S11301800F920FB60F9211242F933F934F935F93C7
S11301906F937F938F939F93AF93BF93EF93FF934B
S11301A080910E0390910C03209178003091790096
S11301B0883029F430930B0320930A030FC0E82FEF
S11301C0F0E03196EE0FFF1FEE0FFF1FE90FF11D58
S11301D0EE0FFF1FE15FFC4F318320839F5F94305C
S11301E019F090930C0305C010920C038F5F809359
S11301F00E0380910E03883099F480910C038111D1
S11302000BC080917C00807F876080937C0072DFCC
S113021081E080930D0310C010920E0310920C0322
S113022080917C00E0910C03F0E0E65EFE4F807F5D
S11302309081892B80937C00FF91EF91BF91AF91C6
S11302409F918F917F916F915F914F913F912F91EA
S11302500F900FBE0F901F9018958091590390E056
S113026020919A03821B9109409660E170E0DBDBE8
S113027008958093B1006093B4006093B30082E169
S11302808093B00008951092B1005B980895109285
S11302909A03109259031092580310925703539AD9
S11302A0F2CFE0915903F0E09F012F5F3F4F2F7091
S11302B0332720935903EE0FFF1FEE0FFF1FE65A5B
S11302C0FC4F608371838283938308950F931F93FC
S11302D0CF93DF93D82F8B01C0E0CD1749F0F801FD
S11302E061917191819191918F01DBDFCF5FF5CFA6
S11302F0DF91CF911F910F910895809157039091B1
S11303005803009741F00197909358038093570343
S1130310892BF1F4B8CFE0919A0380915903E8173F
S1130320B9F084E0E89FF0011124E65AFC4F828181
S1130330938190935803809357036181808199DF5F
S113034080919A0390E001968F70992780939A0385
S113035008954FE150E060E070E08BE993E0EACB70
S11303604FE150E060E070E08BE993E0F3CB609103
S1130370A0038CE4689FB00111246E5C7F4F4CE4B1
S113038050E08AEB93E0E6CB6091A0038CE4689F95
S1130390B0011124675C7F4F4CE450E081EC93E0A2
S11303A0D9CB8830C8F44091A10321E030E0662322
S11303B041F001C0220F8A95EAF7242B2093A10370
S11303C00895B90102C0660F771F8A95E2F7CB0141
S11303D0809584238093A103089580939F030895B7
S11303E08093BF0372C52CE4829FC0011124FC01D9
S11303F0E25EFE4F8CE4AAEBB3E001900D928A9585
S1130400E1F708958093A0032CE4829FB0011124A6
S11304106E5C7F4F4CE450E08AEB93E08BDB809181
S1130420BA039091BB03A091BC03B091BD03853086
S11304309240AF44BD4419F080E0D5DF98CF0895D1
S1130440EBE9F3E0158281E0848381E092E0A8E5A2
S1130450B4E580839183A283B38380E3868310868B
S1130460178216861586148A138A128E118E80E0DE
S113047092E092878187908B8787968B858B948F68
S1130480838F8FEF93E094878387928B818B908FF8
S1130490878B968F858F80E0B5CF5BDF80919B0340
S11304A090919C03A0919D03B0919E038130924052
S11304B0A845B44511F0C4DF53DF8091A003A2CF57
S11304C08F929F92AF92BF92CF92DF92EF92FF9260
S11304D01F93CF93DF93EC01162FA4E6B0E0A61B85
S11304E0B1099C0103DB6B017C0122E3C20ED11C28
S11304F0E11CF11C9E01DE01EDDA20ED822E27E0E5
S1130500922EA12CB12CA5019401A0DADE01F4DA1B
S1130510A50194019BDAA12FB0E0EEDA6C0D7D1DEC
S11305208E1D9F1D24E630E040E050E08FDAC901C3
S1130530DF91CF911F91FF90EF90DF90CF90BF900C
S1130540AF909F908F9008959B018053984F68E2DD
S113055070E069DA6115710569F037FF09C0882711
S11305609927821B930BACDF91958195910908958E
S1130570C901A6CFC90108958F929F92AF92BF92ED
S1130580CF92DF92EF92FF920F931F93CF93DF935B
S1130590EA017901FB01E81BF90B241B350BD80197
S11305A0A81BB90B91DA9F01F7FF02C02F5F3F4FE1
S11305B0359527958901330F220B330B600F711F7B
S11305C0821F931F9F01FF0F440B550B61DA4E01ED
S11305D0DD0FAA08BB086701FF0CEE08FF08DA016B
S11305E0C901880D991DAA1DBB1DC816D906EA06A6
S11305F0FB0614F4D701C60188159905AA05BB05A5
S113060014F4D501C401DF91CF911F910F91FF9094
S1130610EF90DF90CF90BF90AF909F908F90089510
S11306200F931F938A0120ED37E040E050E0A4DFF0
S11306301F910F9108959B01DC0146DA68517C4FAC
S11306408F4F9F4F20ED37E040E050E021DAC901A1
S113065008950F931F93FC018B01828193811616D9
S1130660170644F0408151819C0160E070E080E312
S113067098EF07C024813581AC0160ED77E080E01C
S113068090E07ADF1F910F9108954F925F926F92DD
S11306907F92AF92BF92CF92DF92EF92FF920F932D
S11306A01F93CF93DF93EC018B015C0186E0A80ECE
S11306B0B11CC12CD12C760120ED422E27E0522E04
S11306C0612C712C29913991F801A191B1918F017B
S11306D0FBD9A3019201DCD9C20ED31EE41EF51E80
S11306E0CA15DB0579F7F1EDCF16F7E0DF06E10473
S11306F0F10484F480E3C81688EFD8068FEFE80687
S1130700F80674F480E3C82E88EFD82EEE24EA9419
S1130710FE2C06C090EDC92E97E0D92EE12CF12CC9
S1130720C601DF91CF911F910F91FF90EF90DF9061
S1130730CF90BF90AF907F906F905F904F9008954F
S113074040910A04542F517029B136B14695852F32
S113075090E0840F911D840F911DFC01E55FFB4F18
S1130760309538702095257D232B2083552319F04F
S1130770259A219804C094B182E2892784B9809192
S1130780DE029091DF029093070480930604809127
S11307900A048F5F877080930A04089585B18D7D64
S11307A085B9259A21988AB18A728AB98BB1856DE7
S11307B08BB987B1887087B910920A0408950F9392
S11307C01F936091080470910904CB01A0E0B0E08C
S11307D0BC01552744278091060490910704909307
S11307E0090480930804A0E0B0E08A019B01082B6F
S11307F0192B2A2B3B2BC901B8011F910F91089586
S1130800E0913604F0E09F012F5F3F4F2F703327B4
S113081020933604EE0FFF1FED5EFB4F8083918320
S11308200895CF93DF93EB0120913604209337048E
S1130830E7DFCE01DF91CF91E3CF18BC10923404EF
S11308401092330410923504109236041092370437
S113085088BD08950F931F93CF93DF93082F809142
S1130860360480933704EB0110E0101729F08991C6
S11308709991C6DF1F5FF9CFDF91CF911F910F913F
S1130880089583E384BD83E085BD559A18BC109216
S113089034041092330410923504109236041092EA
S11308A0370408958091330490913404009791F0B3
S11308B001979093340480933304892B71F59091BC
S11308C0360480913504981328C080913704891325
S11308D022C023C0E0913504809136048E17E9F0DC
S11308E0F0E0EE0FFF1FED5EFB4F808188BD80912D
S11308F0350490E0FC01EE0FFF1FED5EFB4F2181FC
S11309004AE0249F9001112430933404209333044B
S113091001968F70992780933504089580E8809319
S113092061001092610010926000A0DB37DFA9DF44
S113093021D4ADDCB2DDFBD27894D4D4D7D080E01E
S113094090910D03992319F010920D038F5F853058
S1130950B8F30895E3DF33DF6B017C01CB0160D88A
S1130960882351F060919C0270919D0280919A02BB
S113097090919B0256DF27C0C0FE10C081E0A8D230
S11309806AE783E076DC60910C0270910D0280913D
S11309900A0290910B0245DFC2E016C0D0FE0DC0E2
S11309A081E0A0D262E072E084E054DF6EE472E0A1
S11309B087E08CDCC0E0D1E008C080E83EDF6EE474
S11309C072E087E083DCC0E0D0E0412C512C32019E
S11309D000910C0210910D02A0900A02B0900B023B
S11309E080910D038823C1F010920D0317D180E08C
S11309F041D27C0160E053D2DD24D3948D2D3AD2D0
S1130A006D2D4DD2D39426E0D212F8CFFED24E0CE7
S1130A105F1C611C711CE4CFD2DE6B017C01CB0135
S1130A20DED7DD23F9F0C701AA27BB27B701A6014A
S1130A306627772784279527A627B727B701A60116
S1130A40442751706627772784239523A623B72349
S1130A50892B8A2B8B2B31F080E044D280E8EDDEA9
S1130A60D0E01CC0C701B60148D0CC23B9F0C230D5
S1130A7049F4C0FC13C0B801C501D3DE66E272E0DC
S1130A808AE024DCEADB81112FC080E021D280E8F7
S1130A90D4DE6EE472E087E019DCC0E084E020DBA1
S1130AA08D33924038F4D9DB811104C06EE172E0D9
S1130AB082E00CDC2091C50330E0A1EDB5EB0AD84F
S1130AC0611571058105910509F48ACF64157505D1
S1130AD08605970508F084CFC0DB811181CF6EE0D5
S1130AE072E084E0F3DB7CCFC1E0D8CF10923A040B
S1130AF0109239041092380408958F929F92AF9205
S1130B00BF92CF92DF92EF92FF924B015C0165019D
S1130B10EE24FF24D501C401AA27BB27C826D92661
S1130B20EA26FB26C820D920EA20FB20C4FE02C006
S1130B3080E0CCD2D4FE02C080E0F2D2D2FE02C069
S1130B4081E0C4D2C2FE02C081E0EAD2C7FE02C084
S1130B5082E0BCD2D7FE02C082E0E2D2C6FE02C06E
S1130B6083E0B4D2D6FE02C083E0DAD2D0FE2AC03B
S1130B7080913A048F5F817080933A0479EF8111F8
S1130B8074E862E08DE790E08CDB80913804882380
S1130B9049F060916C0270916D0280916A029091AB
S1130BA06B020CC080913A04882351F0609170026A
S1130BB07091710280916E0290916F0232DE02C0D8
S1130BC080E83BDE8091BE03811112C0D501C401CF
S1130BD081709927AA27BB27282F217020933904D5
S1130BE0892B8A2B8B2B89F062E07BE28FE00BC090
S1130BF0C0FE0BC09091380481E0892780933804AB
S1130C0062E070EB8DE790E04CDBFF90EF90DF90BB
S1130C10CF90BF90AF909F908F9008951F93CF93E4
S1130C20DF9300D000D000D0CDB7DEB781E019D279
S1130C30E0913A0416E01E9FF0011124E654FC4FA3
S1130C40BC018089918980DCE0913A041E9FF00107
S1130C501124E654FC4FBC01848D958DECDC9A8301
S1130C60898382E0FED1E0913A041E9FF0011124B1
S1130C70E654FC4FBC018289938966DCE0913A0416
S1130C801E9FF0011124E654FC4FBC01868D978D04
S1130C90D2DC9C838B8383E0E4D1E0913A041E9FF1
S1130CA0F0011124E654FC4FBC01848995894CDC85
S1130CB0E0913A041E9FF0011124E654FC4FBC015C
S1130CC080A191A1B8DC9E838D838091BE03813085
S1130CD031F008F447C0823009F473C0C1C0809178
S1130CE0380481110CC0BDD120913A04129F9001A7
S1130CF01124BC01C90182519C4FABDC02C080E3CA
S1130D0098EF90933C0480933B0489819A8190935B
S1130D103E0480933D048B819C8190934004809396
S1130D203F048D819E819093420480934104E0911D
S1130D303A04F0E0EE0FFF1FEA53FC4F80819181EB
S1130D40909344048093430480E08BD120913A042F
S1130D5046E0249F90011124BC01C9018E519C4F8F
S1130D6078DC7AC080E07DD190933C0480933B048E
S1130D7089819A8190933E0480933D048B819C8168
S1130D809093400480933F048D819E81909342040C
S1130D9080934104E0913A04F0E0EE0FFF1FEA5320
S1130DA0FC4F80819181909344048093430480910B
S1130DB03904811103C080EC99EF4EC080E496E0C1
S1130DC04BC080E04ED190933C0480933B046091EF
S1130DD03A04169FB00111246E517C4FCE01019646
S1130DE054DC90933E0480933D0460913A04169F32
S1130DF0B001112462517C4FCE01019646DC9093E0
S1130E00400480933F048D819E819093420480939B
S1130E10410480913804811103C080EC99EF02C031
S1130E2080E496E0909344048093430460913A04F0
S1130E3086E0689FB001112466507C4FCE01019674
S1130E4024DCE0913A04F0E0EE0FFF1FEA53FC4F7C
S1130E5020813181820F931F90934604809345042F
S1130E6026960FB6F894DEBF0FBECDBFDF91CF91AB
S1130E701F9108950F931F93880F990BFC01E55C54
S1130E80FB4F008111812FEF33E040E050E060ED33
S1130E9077E080E398EF70DB1F910F91089566303F
S1130EA098F4811524E092072CF497FF05C080E0A4
S1130EB090E002C08FEF93E0E62FF0E0EE0FFF1F0B
S1130EC0ED51FD4F9183808308958093F00208953E
S1130ED09091F002882311F0906801C09F7790935D
S1130EE0F00208959091F002882311F0906201C0FD
S1130EF09F7D9093F0020895A3EEB2E0E2EFF2E05A
S1130F0080E090E03C9111962C9111971296422F1B
S1130F10437031839C01220F331F220F331F242B74
S1130F202083019632968630910561F708951092D8
S1130F30EF021092E20281E090E09093C50080936A
S1130F40C40088E08093C10086E08093C200E3EE91
S1130F50F2E080E092E0918380839383828395839F
S1130F608483978386839187808793878287809100
S1130F70BF038093F002C0CF1F920F920FB60F925F
S1130F8011248F93EF93FF938091C000E091EF02BF
S1130F9085FF0DC0EE2391F081E08E0F8093EF0268
S1130FA0F0E0E051FD4F80818093C600EDCFEE303C
S1130FB029F48091C1008F7D8093C100FF91EF914E
S1130FC08F910F900FBE0F901F90189581E0809322
S1130FD0EF028091F0028093C6008091C00085FFEB
S1130FE00EC0E091EF02EE2351F081E08E0F80936A
S1130FF0EF02F0E0E051FD4F80818093C6008091C4
S1131000C10080628093C100089576DF81E08093FF
S1131010E2020895CF9320919F0394E0299F9001C9
S11310201124280F311DF901EE58FD4FC0818C2F7A
S113103057D8AC0186E0C89FF0011124E556FC4F57
S1131040818592858417950744F0BC01878190853A
S1131050E7DA805D9740CF91089563857485CF91D9
S1131060DFCACF93E0919F0324E0E29FF0011124B3
S1131070E80FF11DEE58FD4FC081CCDFAC01EC2F21
S1131080F0E0E654FC4F97812CEE9202C00111244B
S1131090841795073CF0BC0180E398EFC1DA805DCA
S11310A0974003C060ED77E0BBDAC83068F4209164
S11310B0A10330E002C035952795CA95E2F720FFD9
S11310C003C0919581959109CF910895CF93DF93B2
S11310D0C82FD0E0C654DC4F8F818F5F8F83982F49
S11310E0990F905590930B018F3134F08EE18F83DB
S11310F06AE071E082E0EAD88F81811105C062E084
S113110071E082E0E3D809C060910A0170910B019B
S113111080910C0190910D01C4D8DF91CF9134C915
S1131120CF93DF93C82FD0E0C654DC4F8F8181501A
S11311308F83982F990F905590930B01823E34F42E
S113114082EE8F836AE071E082E0C0D88F818111E2
S113115005C062E071E082E0B9D809C060910A017B
S113116070910B0180910C0190910D019AD8DF913F
S1131170CF910AC91092490410924A0410924B0468
S113118010924C04109248041092470481E080931A
S11311908100109280008CEE9AE090938B008093F3
S11311A08A0082E690E1909389008093880086E02B
S11311B080936F0008951F920F920FB60F9211241F
S11311C02F933F934F935F936F937F938F939F934B
S11311D0AF93BF93EF93FF9380918A0090918B001C
S11311E08451954F90938B0080938A006DD7882308
S11311F021F08091E2028111E9DEA2DAFF91EF9100
S1131200BF91AF919F918F917F916F915F914F911A
S11312103F912F910F900FBE0F901F9018951F9222
S11312200F920FB60F9211242F933F934F935F9316
S11312306F937F938F939F93AF93BF93EF93FF939A
S11312408091490490914A04A0914B04B0914C04BC
S11312500196A11DB11D8093490490934A04A09363
S11312604B04B0934C048091470490914804805DF2
S11312709E4F9093480480934704883E9340ACF07B
S113128080918800909189008F599F4E9093890096
S1131290809388008091470490914804885E93402D
S11312A090934804809347040AC0809188009091E9
S11312B089008E599F4E90938900809388001DD891
S11312C0F1DAFF91EF91BF91AF919F918F917F914F
S11312D06F915F914F913F912F910F900FBE0F909F
S11312E01F901895109201031092000308958091A5
S11312F04D04843159F020F4813181F482E009C035
S1131300813431F0843451F480E003C081E001C0C1
S113131083E078D881E080930103089580E0089504
S1131320AF92BF92CF92DF92EF92FF920F931F93EF
S1131330CF93DF9380914D04813209F478C048F44F
S1131340823149F18431F1F0813109F076C080E0D5
S11313506FC0813409F469C070F4843209F06DC03F
S11313606EEA72E083E0B2D762E872E082E072DA99
S1131370D0E0C0E053C0823461F0843409F05DC031
S113138061E001C060E084E00CD881E08093010357
S113139055C061E001C060E085E0F6CF6C01EE2449
S11313A0FF248B019C0122273327C026D126E22665
S11313B0F326C622D722E822F922C4FE20C0AC2E8E
S11313C0AA0CBB0800E010E0D0E08D2F89D6F8010C
S11313D0EA0DFB1DE556FC4F90878783DF5F0A5FAC
S11313E01F4FD43091F7CF5F8C2F880F62E872E0E3
S11313F08E5F30DA62ED72E083E068D7D1E0D6FE2A
S11314000BC0CF5F6EEA72E083E060D78C2F880F49
S113141062E872E08E5F1EDAC3301CF4D0D963FD3B
S1131420BDCF81E0DD2351F0B1CF81E001C082E086
S1131430DAD781E08093000301C080E0DF91CF918F
S11314401F910F91FF90EF90DF90CF90BF90AF90DE
S113145008954F925F926F927F929F92AF92BF9244
S1131460CF92DF92EF92FF920F931F93CF93DF936C
S1131470C82E5B016EEA72E083E028D762E872E06E
S113148082E0E8D910E0912CD12CC92D092C000C54
S1131490DD0BCC15DD050CF089C091D963FF86C046
S11314A09C01442755272B013C01662477244226BE
S11314B0532664267526462257226822792244FE42
S11314C00EC0CC0FDD1FCA0DDB1D80E0A3DD9983A8
S11314D08883939462ED72E083E0F8D611E056FEBF
S11314E00BC093946EEA72E083E0F0D6892D880FE6
S11314F062E872E08E5FAED9C92D092C000CDD0BB9
S113150047FE2AC07E01EE0CFF1CEA0CFB1CF7010F
S1131510008111810C591F4F013DF7E01F073CF07A
S113152062E171E082E0D2D600ED17E011C001154E
S1131530110529F462E071E082E0C8D609C0609127
S11315401201709113018091140190911501A9D693
S1131550F7011183008311E057FE97CFCC0FDD1FF5
S1131560CA0DDB1D08811981045611090033F8EFF7
S11315701F073CF462E171E082E0A8D600E318EFB3
S113158011C00115110529F462E071E082E09ED6D4
S113159009C060911201709113018091140190911E
S11315A015017FD61983088311E06FCF812FDF9156
S11315B0CF911F910F91FF90EF90DF90CF90BF904C
S11315C0AF909F907F906F905F904F90089580911F
S11315D04E048431B1F118F4813139F05BC08134A7
S11315E079F1843409F056C082CE80914D04813261
S11315F0E9F048F48231B9F08431D1F0813109F055
S113160049C082E018C08134A9F028F4843209F07A
S113161041C080E009C0823421F08434D9F580E0EF
S11316200AC088E101C080E1DBD626C009D704C026
S113163081E001C083E0D1D681E080930103089565
S11316406FCE80914D04843189F038F48131D9F022
S1131650823101F56AEF73E00BC08234B9F084344F
S113166079F08134B9F466ED73E002C062EE73E0A0
S113167086E0EFDE882371F081E080930003089513
S11316806EEE73E0F5CF6AEC73E0F2CF66EC73E0D4
S113169082E0EFCF80E0089580E022D581E020D57C
S11316A082E01ED583E01CD58091FF0280934E0416
S11316B08091FE0280934D040895CF92DF92EF92C1
S11316C0FF92CF93BC01C0904904D0904A04E090AB
S11316D04B04F0904C046031710509F04FC08091C7
S11316E0490490914A04A0914B04B0914C048C1984
S11316F09D09AE09BF09893E9340A105B10598F142
S11317006038710521F158F460317105E9F06034F5
S1131710710521F16430710531F561E01BC061157B
S113172080E1780779F028F461157440E1F460E011
S113173011C0611520E4720779F06115704899F4BD
S113174061E006C061E001C060E080E009C060E0E3
S113175082E006C081E004C061E001C060E083E093
S113176020D6C1E001C0C0E02AD8CC2309F4B3CF0D
S113177062ED72E083E0AAD5F3D520C0611520E1C3
S1131780720709F4ACCF6038710509F4A8CF61156C
S113179080E8780709F4A3CF611524E0720709F4FF
S11317A09ECF6430710509F49ACF6034710509F451
S11317B096CF611580E4780709F491CF6DDF8091AD
S11317C0A10384FD02C0C0E010C080914E048434A3
S11317D0D1F78DDDC82F8823B1F366EC72E083E086
S11317E075D5BED53AD58111FDCF8C2FCF91FF9001
S11317F0EF90DF90CF9008952F923F924F925F9297
S11318006F927F928F929F92AF92BF92CF92DF920C
S1131810EF92FF920F931F93CF93DF9300D01F9209
S1131820CDB7DEB7CCD72B013C01809101038111E8
S113183004C090900003892D02C081E090E0282F1D
S11318402170922E80919C0290919D029B838A83A9
S113185000919A0210919B02BC01C801E2D721E0D9
S113186029832090A0023090A102A0909E02B09003
S11318709F0243FE9DC0A3D72B013C010DDF2981AC
S11318802223C9F0A4DE882351F062ED72E083E0E4
S11318901DD5B101C501C5D79924939427C06AEB1E
S11318A072E083E013D56A817B81C801BAD7D5D4AD
S11318B08111FDCF1BC09920C9F042FE17C066EC10
S11318C072E083E003D580910103882319F048D5A1
S11318D01092010380910003882319F048D51092D7
S11318E000036A817B81C8019CD7912C6301EE249B
S11318F0FF24D301C201AA27BB27C826D926EA267A
S1131900FB26C420D520E620F720D701C60124E019
S1131910B695A795979587952A95D1F7282F217085
S11319202983C7FE23C08090C503912C8FE0880EC5
S1131930911C9FEF8916910449F044F062E171E033
S113194082E0C4D488248A94912C09C06091120145
S1131950709113018091140190911501A2D4809289
S1131960C503E1E0E093000399249394D7FE81CF6B
S1131970E090C503F12CFFE0EF1AF108F7FE07C071
S113198062E171E082E0A2D4E12CF12C09C0609103
S1131990160170911701809118019091190181D459
S11319A0E092C50321E0209300039924939461CF2E
S11319B0892D0F900F900F90DF91CF911F910F9170
S11319C0FF90EF90DF90CF90BF90AF909F908F905B
S11319D07F906F905F904F903F902F90089583FF7A
S11319E01EC08091A10385FF1AC080E013DB8432FE
S11319F09A4F74F401DF882349F060919C0270913E
S1131A009D0280919A0290919B020BC780E815C7B2
S1131A1024D4811104C062EA72E083E057C40895BB
S1131A2083FDEACE4ACE97FB072E16F4009406D027
S1131A3077FD08D06BD007FC05D03EF490958195D6
S1131A409F4F0895709561957F4F0895A1E21A2ED6
S1131A50AA1BBB1BFD010DC0AA1FBB1FEE1FFF1F4E
S1131A60A217B307E407F50720F0A21BB30BE40B9E
S1131A70F50B661F771F881F991F1A9469F76095E5
S1131A807095809590959B01AC01BD01CF0108959F
S1131A90052E97FB16F400940FD057FD05D0D6DF22
S1131AA007FC02D046F408C0509540953095219526
S1131AB03F4F4F4F5F4F0895909580957095619576
S1131AC07F4F8F4F9F4F089505D0332312F48A1B05
S1131AD09B0B0DC0A29FB001B39FC001A39F01D077
S1131AE0B29F700D811D1124911D0895F3DFB7FF7E
S1131AF00895821B930B0895EDDFA59F900DB49F6D
S1131B00900DA49F800D911D11240895AA1BBB1B49
S1131B1051E107C0AA1FBB1FA617B70710F0A61BE9
S1131B20B70B881F991F5A95A9F780959095BC010A
S1131B30CD010895DC01CB01FC01F999FECF06C06B
S1131B40F2BDE1BDF89A319600B40D924150504077
S1131B50B8F70895DC01A40FB51F4150504040F080
S1131B60CB01840F951F2E9105D041505040D8F7DA
S1131B700895262FF999FECF92BD81BDF89A019759
S1131B8000B4021639F01FBA20BD0FB6F894FA9AC1
S10D1B90F99A0FBE0895F894FFCFF0
S1131B9A000202B0F40103BAF40102B07D0003FAB0
S1131BAA7D0003FA7D0003C67D00050400010502D9
S1131BBA4F4D001800000000005AC1F9400630F8E1
S1131BCA30F830F830F830F830F84006400640066D
S1131BDA4006400640060000000000000000000025
S1131BEA00000000000000000000000000000000E7
S1131BFA0000000000000000000005024F4D01181B
S1131C0A00000000005A00000000E0FCE0FC88FA32
S1131C1AE0FCE0FC88FA10041004B004B004B00438
S1131C2AA00521FE0000000561FA0000A005C1F923
S1131C3A0000A005A005A005A00500000000000002
S1131C4A00000000000005024F4D021800000000C9
S1131C5A009600000000E0FCE0FC88FAE0FCE0FCEE
S1131C6A88FA10041004B004B004B004A005D00724
S1131C7A00000000D007000000000000D0070000A8
S1131C8A0000D007000031F80000000031F800001D
S1131C9A0000C814000AC8140096C814001402DE0E
S1131CAA320000003200036232000000B80B026204
S1131CBA32000000D00703FA64000000E80303C6F8
S1131CCA64000000E80303A664000000E803037A42
S1131CDA64000000E803035364000000E803037A85
S1131CEA3E00036F3E0003623E00035D3E00035361
S1131CFA3E0003493E0003423E00C8140014C83C97
S1131D0A003C020300010003020102010003000176
S1131D1A020300C8FF0A000AFF0A000AFF0A000AAF
S1131D2AFF0A000AFF0A000AFF0A0032C846C80A64
S1131D3A000A03FA280002F928000000C80002BBBE
S1131D4A7D000000FA0003BA7D0003FA9001000046
S1131D5A9001037A900102BBFA000349FA0002F9DE
S1111D6AFA0003F9FA00036FFA0003FAFA0014
S9030000FC
