S00E00004C503464736D2E7372656302
S113000019C033C032C031C030C02FC02EC02DC083
S11300102CC02BC02AC076C93AC927C026C025C027
S113002024C023C022C0FCC720C0A3C01EC01DC062
S11300301CC01BC011241FBECFEFD4E0DEBFCDBF58
S113004012E0A0E0B1E0E8E8FDE102C005900D9205
S1130050AC3DB107D9F724E0ACEDB2E001C01D928C
S1130060AC34B207E1F7B1D48DCECACF29E033E086
S113007044E060E072E080E090E0F901E80FF91FED
S113008071836083089688349105B9F741502E5FD7
S11300903F4F4111F0CF10920603109208031092C3
S11300A007031092FB0283E380937E00E091060332
S11300B0F0E0E85EFE4F8081806480937C008DEAEE
S11300C080937A0085E080937B000895853048F41E
S11300D0E82FF0E0EE0FFF1FE450FD4F8081918187
S11300E0089580E090E00895CF93DF93ACEFB2E001
S11300F0E9E0F3E040E050E020E030E080E090E030
S1130100EF01C40FD51F68857985860F971F099065
S1130110D881C02D6C1B7D0B260F371F485F5F4FA6
S11301204034510569F743E0959587954A95E1F781
S11301303595279535952795820F931F97FD07C011
S1130140811524E092072CF08FEF93E002C080E049
S113015090E08D939D93EF01C05CDF4F888199817E
S11301608193919383E0E131F80721F6DF91CF91F8
S113017008951F920F920FB60F9211242F933F935D
S11301804F935F936F937F938F939F93AF93BF939B
S1130190EF93FF938091FB028F5F8093FB0280912A
S11301A008039091060320917800309179008830FB
S11301B029F430930503209304030FC0E82FF0E0E3
S11301C03196EE0FFF1FEE0FFF1FE90FF11DEE0F2B
S11301D0FF1FE75FFC4F318320839F5F943019F04A
S11301E09093060305C0109206038F5F8093080363
S11301F0809108038830A9F48091060381110BC013
S113020080917C00807F876080937C006DDF81E03B
S11302108093070312C010920803109206031092F1
S1130220FB0280917C00E0910603F0E0E85EFE4F63
S1130230807F9081892B80937C00FF91EF91BF9107
S1130240AF919F918F917F916F915F914F913F916A
S11302502F910F900FBE0F901F901895809153030C
S113026090E020919403821B9109409660E170E034
S1130270D1DC08958093B1006093B4006093B3001F
S113028082E18093B00008951092B1005B980895C4
S1130290109294031092530310925203109251033C
S11302A0539AF2CFE0915303F0E09F012F5F3F4F49
S11302B02F70332720935303EE0FFF1FEE0FFF1F02
S11302C0EC5AFC4F608371838283938308950F9368
S11302D01F93CF93DF93D82F8B01C0E0CD1749F044
S11302E0F80161917191819191918F01DBDFCF5F71
S11302F0F5CFDF91CF911F910F9108958091510314
S113030090915203009741F0019790935203809388
S11303105103892BF1F4B8CFE091940380915303F6
S1130320E817B9F084E0E89FF0011124EC5AFC4F7F
S113033082819381909352038093510361818081E0
S113034099DF8091940390E001968F7099278093B0
S1130350940308954FE150E060E070E085E993E094
S1130360E0CC4FE150E060E070E085E993E0E9CC57
S113037060919A038CE4689FB00111246E5C7F4FF6
S11303804CE450E084EB93E0DCCC60919A038CE481
S1130390689FB0011124675C7F4F4CE450E08BEB05
S11303A093E0CFCC40919B0321E030E0662341F001
S11303B001C0220F8A95EAF7242B20939B0308950A
S11303C0B90102C0660F771F8A95E2F7CB018095C9
S11303D0842380939B0308954091BA0321E030E085
S11303E0662341F001C0220F8A95EAF7242B20935B
S11303F0BA030895B90102C0660F771F8A95E2F720
S1130400CB01809584238093BA0308958093990344
S113041008958093B903A6C52CE4829FC0011124DA
S1130420FC01E45EFE4F8CE4A4EBB3E001900D927A
S11304308A95E1F7089580939A0397D560919A037A
S11304402CE4629FB00111246E5C7F4F4CE450E0B9
S113045084EB93E066DC8091B4039091B503A091A2
S1130460B603B091B70386309240AF44BD4419F04F
S113047080E0D2DF7DCF0895E5E9F3E0158281E0E5
S1130480848382E092E0A8E5B4E580839183A2832B
S1130490B38383E086831086178216861586148AB2
S11304A0138A128E118E80E092E092878187908B5E
S11304B08787968B858B948F838F8FEF93E09487B8
S11304C08387928B818B908F878B968F858F80E02B
S11304D0B2CF40DF8091950390919603A09197034A
S11304E0B091980382309240A845B44511F0C4DF1E
S11304F038DF80919A039FCF8F929F92AF92BF92E1
S1130500CF92DF92EF92FF921F93CF93DF93EC0190
S1130510162FA4E6B0E0A61BB1099C01DEDB6B013B
S11305207C0122E3C20ED11CE11CF11C9E01DE0100
S1130530C8DB20ED822E27E0922EA12CB12CA50140
S113054094017BDBDE01CFDBA501940176DBA12FD7
S1130550B0E0C9DB6C0D7D1D8E1D9F1D24E630E0CF
S113056040E050E06ADBC901DF91CF911F91FF9019
S1130570EF90DF90CF90BF90AF909F908F900895B1
S11305809B018053984F68E270E044DB611571056C
S113059069F037FF09C088279927821B930BACDFCA
S11305A09195819591090895C901A6CFC90108952E
S11305B08F929F92AF92BF92CF92DF92EF92FF926F
S11305C00F931F93CF93DF93EA017901FB01E81B9B
S11305D0F90B241B350BD801A81BB90B6CDB9F014D
S11305E0F7FF02C02F5F3F4F359527958901330FE1
S11305F0220B330B600F711F821F931F9F01FF0F8C
S1130600440B550B3CDB4E01DD0FAA08BB08670108
S1130610FF0CEE08FF08DA01C901880D991DAA1D17
S1130620BB1DC816D906EA06FB0614F4D701C60199
S113063088159905AA05BB0514F4D501C401DF91F9
S1130640CF911F910F91FF90EF90DF90CF90BF90CB
S1130650AF909F908F9008950F931F938A0120ED80
S113066037E040E050E0A4DF1F910F9108959B0113
S1130670DC0121DB68517C4F8F4F9F4F20ED37E029
S113068040E050E0FCDAC90108950F931F93FC0188
S11306908B01828193811616170644F040815181A3
S11306A09C0160E070E080E398EF07C0248135810D
S11306B0AC0160ED77E080E090E07ADF1F910F916C
S11306C008954F925F926F927F92AF92BF92CF92B2
S11306D0DF92EF92FF920F931F93CF93DF93EC017E
S11306E08B015C0186E0A80EB11CC12CD12C7601D3
S11306F020ED422E27E0522E612C712C2991399144
S1130700F801A191B1918F01D6DAA3019201B7DA70
S1130710C20ED31EE41EF51ECA15DB0579F7F1EDF2
S1130720CF16F7E0DF06E104F10484F480E3C81691
S113073088EFD8068FEFE806F80674F480E3C82E35
S113074088EFD82EEE24EA94FE2C06C090EDC92E34
S113075097E0D92EE12CF12CC601DF91CF911F91A6
S11307600F91FF90EF90DF90CF90BF90AF907F906C
S11307706F905F904F90089540910404542F5170EE
S113078029B136B14695852F90E0840F911D840FD1
S1130790911DFC01EB5FFB4F309538702095257D52
S11307A0232B2083552319F0259A219804C094B152
S11307B082E2892784B9E5E0F4E080E02FEF9081BC
S11307C02923892B329694E0ED30F907C1F79091F3
S11307D00004922B89238093000420E030E080E021
S11307E04FEFF901EB5FFB4F91814923892B2E5F7A
S11307F03F4F28303105A9F790910104942B8923A8
S113080080930104809104048F5F877080930404B3
S1130810089585B18D7D85B9259A21988AB18A720A
S11308208AB98BB1856D8BB987B1887087B91092FD
S1130830040408950F931F936091020470910304BC
S1130840CB01A0E0B0E0BC0155274427809100040F
S1130850909101049093030480930204A0E0B0E01B
S11308608A019B01082B192B2A2B3B2BC901B801A8
S11308701F910F910895E0913004F0E09F012F5FE4
S11308803F4F2F70332720933004EE0FFF1FE35F99
S1130890FB4F808391830895CF93DF93EB012091E5
S11308A0300420933104E7DFCE01DF91CF91E3CF11
S11308B018BC10922E0410922D0410922F04109242
S11308C030041092310488BD08950F931F93CF9381
S11308D0DF93082F8091300480933104EB0110E002
S11308E0101729F089919991C6DF1F5FF9CFDF9125
S11308F0CF911F910F91089583E384BD83E085BD5B
S1130900559A18BC10922E0410922D0410922F04A4
S11309101092300410923104089580912D04909126
S11309202E04009791F0019790932E0480932D0448
S1130930892B71F59091300480912F04981328C06D
S113094080913104891322C023C0E0912F04809147
S113095030048E17E9F0F0E0EE0FFF1FE35FFB4F6A
S1130960808188BD80912F0490E0FC01EE0FFF1F71
S1130970E35FFB4F21814AE0249F900111243093CF
S11309802E0420932D0401968F70992780932F04B1
S1130990089580E8809361001092610010926000D5
S11309A098DD64DB36DFA8DF4ED472DC10D3789494
S11309B00CD5DDD080E090910703992319F01092B3
S11309C007038F5F8530B8F30895E3DF33DF6B01EE
S11309D07C01CB011CD9882349F060919A02709163
S11309E09B02809198029091990212C0C0FE12C09D
S11309F082E08093DC0281E0BBD26AE783E03ADCE8
S1130A0060910A0270910B02809108029091090290
S1130A1043DF14C0D0FE0CC081E0B4D260E072E0C9
S1130A2084E053DF6CE472E087E051DCC1E007C08E
S1130A3080E83EDF6CE472E087E049DCC0E0412CF2
S1130A40512C3201D1E000910A0210910B02A090C6
S1130A500802B0900902809107038823C1F0109224
S1130A60070329D180E053D27C0160E065D2DD2404
S1130A70D3948D2D4CD26D2D5FD2D39426E0D21217
S1130A80F8CF17D34E0C5F1C611C711CE4CFD2DE6F
S1130A906B017C01CB019AD8CC23F9F0C701AA27BA
S1130AA0BB27B701A6016627772784279527A627A2
S1130AB0B727B701A60144275170662777278423F7
S1130AC09523A623B723892B8A2B8B2B31F080E027
S1130AD059D280E8EDDEC0E024C0C701B6014ED093
S1130AE08091DC028823E9F0823059F4C0FC09C00B
S1130AF0D093DC02B801C501CFDE64E272E08AE083
S1130B00E6DB8091DC02813061F4A8DB811109C04D
S1130B101092DC022DD280E8CBDE6CE472E087E038
S1130B20D6DB84E0D3DA8D33924038F497DB81113D
S1130B3004C06CE172E082E0CADB2091BF0330E0C4
S1130B40A1EDB5EBBED8611571058105910509F4D8
S1130B5082CF641575058605970508F07CCF7EDB8A
S1130B60811179CF6CE072E084E0B1DB74CF109234
S1130B703404109233041092320408958F929F9299
S1130B80AF92BF92CF92DF92EF92FF924B015C0142
S1130B906501EE24FF24D501C401AA27BB27C8267A
S1130BA0D926EA26FB26C820D920EA20FB20C4FE49
S1130BB002C080E0DDD2D4FE02C080E003D3D2FEC6
S1130BC002C081E0D5D2C2FE02C081E0FBD2C7FEE2
S1130BD002C082E0CDD2D7FE02C082E0F3D2C6FECC
S1130BE002C083E0C5D2D6FE02C083E0EBD2D0FEC1
S1130BF02EC0809134048F5F81708093340479EF28
S1130C00811174E88091DC02811104C062E08DE7F7
S1130C1090E048DB80913204882349F060916A02B5
S1130C2070916B0280916802909169020CC080916E
S1130C303404882351F060916E0270916F028091A8
S1130C406C0290916D0228DE02C080E831DE809152
S1130C50B803811116C0D501C40181709927AA2750
S1130C60BB27282F217020933304892B8A2B8B2BAD
S1130C70C9F08091DC02811115C062E07BE28FE053
S1130C800FC0C0FE0FC09091320481E08927809389
S1130C9032048091DC02811105C062E070EB8DE7C3
S1130CA090E000DBFF90EF90DF90CF90BF90AF908B
S1130CB09F908F9008951F93CF93DF9300D000D01F
S1130CC000D0CDB7DEB781E020D2E091340416E045
S1130CD01E9FF0011124EC54FC4FBC0180899189C2
S1130CE04FDCE09134041E9FF0011124EC54FC4FBE
S1130CF0BC01848D958DBBDC9A83898382E005D207
S1130D00E09134041E9FF0011124EC54FC4FBC010B
S1130D108289938935DCE09134041E9FF00111240B
S1130D20EC54FC4FBC01868D978DA1DC9C838B8396
S1130D3083E0EBD1E09134041E9FF0011124EC54C4
S1130D40FC4FBC01848995891BDCE09134041E9F0F
S1130D50F0011124EC54FC4FBC0180A191A187DC6B
S1130D609E838D838091B803813031F008F447C0AD
S1130D70823009F473C0C1C08091320481110CC067
S1130D80C4D120913404129F90011124BC01C901E3
S1130D9088519C4F7ADC02C080E398EF909336042C
S1130DA08093350489819A81909338048093370421
S1130DB08B819C8190933A04809339048D819E8128
S1130DC090933C0480933B04E0913404F0E0EE0FF4
S1130DD0FF1FE054FC4F8081918190933E048093E7
S1130DE03D0480E092D12091340446E0249F900198
S1130DF01124BC01C90184529C4F47DC7AC080E0B5
S1130E0084D1909336048093350489819A81909398
S1130E103804809337048B819C8190933A048093A7
S1130E2039048D819E8190933C0480933B04E0912E
S1130E303404F0E0EE0FFF1FE054FC4F80819181F9
S1130E4090933E0480933D0480913304811103C048
S1130E5080EC99EF4EC080E496E04BC080E055D121
S1130E60909336048093350460913404169FB00146
S1130E70112464527C4FCE01019623DC90933804F4
S1130E808093370460913404169FB0011124685193
S1130E907C4FCE01019615DC90933A04809339047B
S1130EA08D819E8190933C0480933B048091320415
S1130EB0811103C080EC99EF02C080E496E0909326
S1130EC03E0480933D046091340486E0689FB00141
S1130ED011246C507C4FCE010196F3DBE091340475
S1130EE0F0E0EE0FFF1FE054FC4F20813181820FB0
S1130EF0931F9093400480933F0426960FB6F89472
S1130F00DEBF0FBECDBFDF91CF911F9108950F9328
S1130F101F93880F990BFC01EB5CFB4F008111813F
S1130F202FEF33E040E050E060ED77E080E398EFAE
S1130F303FDB1F910F910895663098F4811524E0EA
S1130F4092072CF497FF05C080E090E002C08FEF79
S1130F5093E0E62FF0E0EE0FFF1FE252FD4F918386
S1130F60808308958093EB0208958093EC020895A2
S1130F709091EB02882311F0906801C09F779093C1
S1130F80EB0208959091EB02882311F0906201C066
S1130F909F7D9093EB020895AEEDB2E0EDEEF2E0AA
S1130FA080E090E03C9111962C9111971296422F7B
S1130FB0437031839C01220F331F220F331F242BD4
S1130FC02083019632968630910561F70895109238
S1130FD0EA021092DD0281E090E09093C5008093D4
S1130FE0C40088E08093C10086E08093C200EEEDE7
S1130FF0F2E080E092E091838083938382839583FF
S11310008483978386839187808793878287EBEE97
S1131010F2E08091B903808380919A038183BCCFED
S11310201F920F920FB60F9211248F93EF93FF9399
S11310308091C000E091EA0285FF0DC0EE2391F09B
S113104081E08E0F8093EA02F0E0E551FD4F80814C
S11310508093C600EDCFEE3029F48091C1008F7DDE
S11310608093C100FF91EF918F910F900FBE0F906D
S11310701F90189581E08093EA028091EB0280939F
S1131080C6008091C00085FF0EC0E091EA02EE2305
S113109051F081E08E0F8093EA02F0E0E551FD4FBC
S11310A080818093C6008091C10080628093C100DA
S11310B0089572DF81E08093DD020895CF9320913B
S11310C0990394E0299F90011124280F311DF901FF
S11310D0E059FD4FC0818C2FF9D7AC0186E0C89F41
S11310E0F0011124EB56FC4F8185928584179507F6
S11310F044F0BC0187819085AFDA805D9740CF9141
S1131100089563857485CF91A7CACF93E09199031D
S113111024E0E29FF0011124E80FF11DE059FD4F96
S1131120C081CCDFAC01EC2FF0E0EC54FC4F978194
S11311302CEE9202C0011124841795073CF0BC01E7
S113114080E398EF89DA805D974003C060ED77E033
S113115083DA2091BA0330E002C035952795CA9509
S1131160E2F720FF03C0919581959109CF910895ED
S1131170CF93DF93C82FD0E0CC54DC4F8F818F5FA7
S11311808F83982F990F9055909309018F3134F0E4
S11311908EE18F8368E071E082E099D88F818111BC
S11311A005C060E071E082E092D809C06091080156
S11311B07091090180910A0190910B0173D8DF911C
S11311C0CF91E3C8CF93DF93C82FD0E0CC54DC4F4A
S11311D08F8181508F83982F990F90559093090197
S11311E0823E34F482EE8F8368E071E082E06FD84F
S11311F08F81811105C060E071E082E068D809C088
S1131200609108017091090180910A0190910B018C
S113121049D8DF91CF91B9C88091BA03282F2071A2
S113122084FD03C08CEE9AE002C086E795E09093BB
S1131230440480934304211102C089E001C085E184
S11312408093490408951092450410924604109224
S11312504704109248041092420410924104DCDFC7
S113126081E08093810010928000809143049091EA
S1131270440490938B0080938A0082E690E19093DB
S113128089008093880086E080936F0008951F9200
S11312900F920FB60F9211242F933F934F935F93A6
S11312A06F937F938F939F93AF93BF93EF93FF932A
S11312B020918A0030918B008091430490914404E2
S11312C0820F931F90938B0080938A009091FB026E
S11312D080914904981304C08091DD028111CADE13
S11312E04BDAFF91EF91BF91AF919F918F917F91D5
S11312F06F915F914F913F912F910F900FBE0F907F
S11313001F9018951F920F920FB60F9211242F93CE
S11313103F934F935F936F937F938F939F93AF9379
S1131320BF93EF93FF938091450490914604A0915D
S11313304704B09148040196A11DB11D8093450452
S113134090934604A0934704B093480480914104C9
S113135090914204805D9E4F909342048093410497
S1131360883E9340ACF080918800909189008F5919
S11313709F4E9093890080938800809141049091BE
S11313804204885E934090934204809341040AC0CF
S113139080918800909189008E599F4E9093890086
S11313A080938800ABD7B9DAFF91EF91BF91AF91E9
S11313B09F918F917F916F915F914F913F912F9169
S11313C00F900FBE0F901F9018951092FA02109272
S11313D0F902089580914A04843159F020F481314E
S11313E081F482E009C0813431F0843451F480E026
S11313F003C081E001C083E01ED881E08093FA023B
S1131400089580E00895AF92BF92CF92DF92EF9259
S1131410FF920F931F93CF93DF9380914A048132FD
S113142009F478C048F4823149F18431F1F0813112
S113143009F076C080E06FC0813409F469C070F4AB
S1131440843209F06DC06CEA72E083E040D760E852
S113145072E082E03ADAD0E0C0E053C0823461F056
S1131460843409F05DC061E001C060E080E09AD797
S113147081E08093FA0255C061E001C060E081E040
S1131480F6CF6C01EE24FF248B019C012227332725
S1131490C026D126E226F326C622D722E822F92244
S11314A0C4FE20C0AC2EAA0CBB0800E010E0D0E0C3
S11314B08D2F0CD6F801EA0DFB1DEB56FC4F9087DF
S11314C08783DF5F0A5F1F4FD43091F7CF5F8C2F84
S11314D0880F60E872E08E5FF8D960ED72E083E017
S11314E0F6D6D1E0D6FE0BC0CF5F6CEA72E083E0A3
S11314F0EED68C2F880F60E872E08E5FE6D9C33099
S11315001CF498D963FDBDCF81E0DD2351F0B1CF48
S113151081E001C082E080D781E08093F90201C0BC
S113152080E0DF91CF911F910F91FF90EF90DF90BA
S1131530CF90BF90AF9008954F925F926F927F9239
S11315409F92AF92BF92CF92DF92EF92FF920F934E
S11315501F93CF93DF93C82E5B016CEA72E083E0A4
S1131560B6D660E872E082E0B0D910E0912CD12CBC
S1131570C92D092C000CDD0BCC15DD050CF08FC03A
S113158059D963FF8CC09C01442755272B013C018A
S1131590662477244226532664267526462257223B
S11315A06822792244FE14C0CC0FDD1FCA0DDB1D56
S11315B080E084DD99838883939460ED72E083E016
S11315C086D6892D880F60E872E08E5F7ED911E09F
S11315D056FE0BC093946CEA72E083E078D6892DB2
S11315E0880F60E872E08E5F70D9C92D092C000C59
S11315F0DD0B47FE2AC07E01EE0CFF1CEA0CFB1C2F
S1131600F701008111810C591F4F013DF7E01F07BD
S11316103CF060E171E082E05AD600ED17E011C0C1
S11316200115110529F460E071E082E050D609C08B
S11316306091100170911101809112019091130138
S113164031D6F7011183008311E057FE91CFCC0FFF
S1131650DD1FCA0DDB1D08811981045611090033F1
S1131660F8EF1F073CF460E171E082E030D600E35C
S113167018EF11C00115110529F460E071E082E052
S113168026D609C060911001709111018091120158
S11316909091130107D61983088311E069CF812F34
S11316A0DF91CF911F910F91FF90EF90DF90CF903A
S11316B0BF90AF909F907F906F905F904F900895F0
S11316C080914B048431D1F118F4813139F06FC029
S11316D0813499F1843409F06AC07CCE80914A0443
S11316E0813209F148F48231C1F08431F1F0813161
S11316F009F05DC082E01CC08134C9F028F4843252
S113170009F055C080E00AC0823429F0843409F01D
S11317104EC080E00DC088E101C080E17AD681E04E
S11317208093F9020895A8D604C081E001C083E043
S11317306DD681E08093FA02089565CE80914A04C3
S1131740813261F148F48231F9F08431B1F08131B0
S113175071F564EC73E013C08134C9F038F4843259
S113176031F581E08093F90261E01CC0823491F08C
S11317708434E9F468EE73E002C06CED73E086E053
S1131780DBDE8111CCCF13C064EF73E0F8CF60EDE2
S113179073E0F5CF60EC73E082E0F2CF81E08093F8
S11317A0F90260E084E018D637DD81E0089580E036
S11317B00895EF92FF920F931F93CF93DF9380E0EE
S11317C085D47C0181E082D48C0182E07FD4EC0159
S11317D083E07CD4AC0181E09FEFE916F10408F0CA
S11317E080E0E11493E0F90610F420E001C024E065
S11317F0282BFA949FEFE91691E0F90610F080E0A7
S113180001C082E0322F382B0F3F110530F090E0F9
S1131810011583E0180720F401C090E120E001C025
S113182020E41A950F3F114010F080E001C080E2DF
S1131830232B922B982B90934B0481E0CF3FD1051F
S113184008F080E0C11593E0D90710F420E001C04E
S113185024E0282BDA95CF3FD14010F080E001C07E
S113186082E0322F382B4F3F510530F0411593E081
S1131870590728F490E001C090E120E002C090E014
S113188020E45A954F3F514010F080E001C080E2BF
S1131890232B922B982B90934A04DF91CF911F9185
S11318A00F91FF90EF900895CF92DF92EF92FF9205
S11318B0CF93BC01C0904504D0904604E090470407
S11318C0F09048046031710509F04FC080914504DF
S11318D090914604A0914704B09148048C199D0945
S11318E0AE09BF09893E9340A105B10598F160385E
S11318F0710521F158F460317105E9F06034710526
S113190021F16430710531F561E01BC0611580E19E
S1131910780779F028F461157440E1F460E011C0AF
S1131920611520E4720779F06115704899F461E05B
S113193006C061E001C060E080E009C060E082E0D0
S113194006C081E004C061E001C060E083E044D5EA
S1131950C1E001C0C0E06ED7CC2309F4B3CF60ED81
S113196072E083E0B4D4FDD420C0611520E1720795
S113197009F4ACCF6038710509F4A8CF611580E88B
S1131980780709F4A3CF611524E0720709F49ECF08
S11319906430710509F49ACF6034710509F496CF67
S11319A0611580E4780709F491CF03DF80919B03EC
S11319B080FD02C0C0E010C080914B048434D1F794
S11319C009DDC82F8823B1F364EC72E083E07FD48F
S11319D0C8D444D48111FDCF8C2FCF91FF90EF90C8
S11319E0DF90CF9008952F923F924F925F926F9223
S11319F07F928F929F92AF92BF92CF92DF92EF929B
S1131A00FF920F931F93CF93DF9300D01F92CDB714
S1131A10DEB710D72B013C018091FA02811104C07A
S1131A209090F902892D02C081E090E0282F217066
S1131A30922E80919A0290919B029B838A830091BB
S1131A40980210919902BC01C80126D721E029838C
S1131A5020909E0230909F02A0909C02B0909D0224
S1131A6043FE9DC0E7D62B013C01A3DE298122233E
S1131A70C9F026DE882351F060ED72E083E027D4BC
S1131A80B101C50109D79924939427C068EB72E08A
S1131A9083E01DD46A817B81C801FED6DFD3811126
S1131AA0FDCF1BC09920C9F042FE17C064EC72E060
S1131AB083E00DD48091FA02882319F052D4109255
S1131AC0FA028091F902882319F052D41092F90293
S1131AD06A817B81C801E0D6912C6301EE24FF2446
S1131AE0D301C201AA27BB27C826D926EA26FB268A
S1131AF0C420D520E620F720D701C60124E0B695FE
S1131B00A795979587952A95D1F7282F2170298332
S1131B10C7FE23C08090BF03912C8FE0880E911CD8
S1131B209FEF8916910449F044F060E171E082E08E
S1131B30CED388248A94912C09C0609110017091AD
S1131B4011018091120190911301ACD38092BF03D3
S1131B50E1E0E093F90299249394D7FE81CFE090D9
S1131B60BF03F12CFFE0EF1AF108F7FE07C060E1B4
S1131B7071E082E0ACD3E12CF12C09C06091140136
S1131B807091150180911601909117018BD3E09209
S1131B90BF0321E02093F9029924939461CF892D06
S1131BA00F900F900F90DF91CF911F910F91FF90A5
S1131BB0EF90DF90CF90BF90AF909F908F907F90E9
S1131BC06F905F904F903F902F90089583FF1EC0B9
S1131BD080919B0381FF1AC080E070DA84329A4FAF
S1131BE074F401DF882349F060919A0270919B029A
S1131BF080919802909199024FC680E859C62ED3DD
S1131C00811104C060EA72E083E061C3089583FD3A
S1131C10EACE4ACE97FB072E16F4009406D077FD41
S1131C2008D06BD007FC05D03EF4909581959F4F6A
S1131C300895709561957F4F0895A1E21A2EAA1B0D
S1131C40BB1BFD010DC0AA1FBB1FEE1FFF1FA21768
S1131C50B307E407F50720F0A21BB30BE40BF50B65
S1131C60661F771F881F991F1A9469F760957095EE
S1131C70809590959B01AC01BD01CF010895052E7F
S1131C8097FB16F400940FD057FD05D0D6DF07FC60
S1131C9002D046F408C050954095309521953F4FA9
S1131CA04F4F5F4F089590958095709561957F4F44
S1131CB08F4F9F4F089505D0332312F48A1B9B0B3B
S1131CC00DC0A29FB001B39FC001A39F01D0B29FDA
S1131CD0700D811D1124911D0895F3DFB7FF089540
S1131CE0821B930B0895EDDFA59F900DB49F900D7B
S1131CF0A49F800D911D11240895AA1BBB1B51E1C3
S1131D0007C0AA1FBB1FA617B70710F0A61BB70B67
S1131D10881F991F5A95A9F780959095BC01CD010C
S1131D200895DC01CB01FC01F999FECF06C0F2BD98
S1131D30E1BDF89A319600B40D9241505040B8F785
S1131D400895DC01A40FB51F4150504040F0CB0171
S1131D50840F951F2E9105D041505040D8F7089517
S1131D60262FF999FECF92BD81BDF89A019700B450
S1131D70021639F01FBA20BD0FB6F894FA9AF99AF0
S10B1D800FBE0895F894FFCF93
S1131D8802B0F40103BAF40102B07D0003FA7D0045
S1131D9803FA7D0003C67D000504000106024F4DC9
S1131DA8001800000000005AC1F9400630F830F865
S1131DB830F830F830F830F840064006400640065F
S1131DC8400640060000000000000000000000007B
S1131DD800000000000000000000000000000000F7
S1131DE8000000000000000006024F4D011800002A
S1131DF80000005A00000000E0FCE0FC88FAE0FC67
S1131E08E0FC88FA10041004B004B004B004A0057F
S1131E1821FE0000000561FA0000A005C1F90000D8
S1131E28A005A005A005A005000000000000000012
S1131E380000000006024F4D021800000000009642
S1131E4800000000E0FCE0FC88FAE0FCE0FC88FA12
S1131E5810041004B004B004B004A005D0070000B6
S1131E680000D007000000000000D00700000000B8
S1131E78D007000031F80000000031F8000000002D
S1131E88C814000AC8140096C814001402DE3200EC
S1131E9800003200036232000000B80B0262320014
S1131EA80000D00703FA64000000E80303C66400D6
S1131EB80000E80303A664000000E803037A640052
S1131EC80000E803035364000000E803037A3E00BB
S1131ED8036F3E0003623E00035D3E0003533E0071
S1131EE803493E0003423E00C8140014C83C003CA9
S1131EF802030001000302010201000300010203BE
S1131F0800C8FF0A000AFF0A000AFF0A000AFF0ABB
S1131F18000AFF0A000AFF0A0032C846C80A000A73
S1131F2803FA280002F928000000C80002BB7D005B
S1131F380000FA0003BA7D0003FA90010000900142
S1131F48037A900102BBFA000349FA0002F9FA0085
S10F1F5803F9FA00036FFA0003FAFA0020
S9030000FC
