:1000000019C033C032C031C030C02FC02EC02DC087
:100010002CC02BC02AC030C9FBC827C026C025C0B1
:1000200024C023C022C0D5C720C0ADC01EC01DC083
:100030001CC01BC011241FBECFEFD4E0DEBFCDBF5C
:1000400012E0A0E0B1E0E4EDFCE102C005900D9209
:10005000AC3DB107D9F724E0ACEDB2E001C01D9290
:10006000A734B207E1F79CD433CECACF27E033E000
:1000700044E060E072E080E090E0F901E80FF91FF1
:1000800071836083089688349105B9F741502E5FDB
:100090003F4F4111F0CF10920403109206031092CB
:1000A000050383E380937E00E0910403F0E0E85EC3
:1000B000FE4F8081806480937C008DEA80937A007B
:1000C00085E080937B00089580910403823029F4B9
:1000D00081E090910603923009F080E081700895EC
:1000E000853048F4E82FF0E0EE0FFF1FE650FD4F9B
:1000F00080819181089580E090E00895CF93DF930F
:10010000AAEFB2E0E7E0F3E040E050E020E030E0CA
:1001100080E090E0EF01C40FD51F68857985860FD8
:10012000971F0990D881C02D6C1B7D0B260F371FA0
:10013000485F5F4F4034510569F743E095958795D7
:100140004A95E1F73595279535952795820F931FA9
:1001500097FD07C0811524E092072CF08FEF93E004
:1001600002C080E090E08D939D93EF01C05CDF4F73
:10017000888199818193919383E0EF30F80721F68C
:10018000DF91CF9108951F920F920FB60F92112415
:100190002F933F934F935F936F937F938F939F938F
:1001A000AF93BF93EF93FF93809106039091040365
:1001B0002091780030917900883029F4309303033E
:1001C000209302030FC0E82FF0E03196EE0FFF1FDF
:1001D000EE0FFF1FE90FF11DEE0FFF1FE95FFC4F50
:1001E000318320839F5F943019F09093040305C0FE
:1001F000109204038F5F809306038091060388307A
:1002000099F48091040381110BC080917C00807F60
:10021000876080937C0072DF81E08093050310C0CB
:10022000109206031092040380917C00E091040375
:10023000F0E0E85EFE4F807F9081892B80937C0008
:10024000FF91EF91BF91AF919F918F917F916F91AE
:100250005F914F913F912F910F900FBE0F901F9084
:1002600018958091510390E020919203821B91098F
:10027000409660E170E074DC08958093B100609373
:10028000B4006093B30082E18093B00008951092AF
:10029000B1005B980895109292031092510310924E
:1002A000500310924F03539AF2CFE0915103F0E0C4
:1002B0009F012F5F3F4F2F70332720935103EE0F85
:1002C000FF1FEE0FFF1FEE5AFC4F60837183828386
:1002D000938308950F931F93CF93DF93D82F8B01B0
:1002E000C0E0CD1749F0F801619171918191919130
:1002F0008F01DBDFCF5FF5CFDF91CF911F910F91A2
:10030000089580914F0390915003009741F0019719
:100310009093500380934F03892BF1F4B8CFE09171
:10032000920380915103E817B9F084E0E89FF0014F
:100330001124EE5AFC4F8281938190935003809355
:100340004F036181808199DF8091920390E0019653
:100350008F7099278093920308954FE150E060E0F9
:1003600070E083E993E083CC4FE150E060E070E01F
:1003700083E993E08CCC609198038CE4689FB00192
:1003800011246E5C7F4F4CE450E082EB93E07FCC15
:10039000609198038CE4689FB0011124675C7F4FE3
:1003A0004CE450E089EB93E072CC8830C8F4409183
:1003B000990321E030E0662341F001C0220F8A95C5
:1003C000EAF7242B209399030895B90102C0660F20
:1003D000771F8A95E2F7CB01809584238093990358
:1003E00008958093970308958093B70394C52CE4F0
:1003F000829FC0011124FC01E45EFE4F8CE4A2EB5D
:10040000B3E001900D928A95E1F7089580939803E7
:1004100085D5609198032CE4629FB00111246E5C35
:100420007F4F4CE450E082EB93E021DC8091B203FB
:100430009091B303A091B403B091B503853092407D
:10044000AF44BD4419F080E0D2DF95CF0895E3E9D1
:10045000F3E0158281E0848381E092E0A8E5B4E5D1
:1004600080839183A283B38380E38683108617827F
:1004700016861586148A138A128E118E80E092E0F9
:1004800092878187908B8787968B858B948F838FBC
:100490008FEF93E094878387928B818B908F878BEC
:1004A000968F858F80E0B2CF58DF80919303909133
:1004B0009403A0919503B091960381309240A84592
:1004C000B44511F0C4DF50DF809198039FCF8F9225
:1004D0009F92AF92BF92CF92DF92EF92FF921F93C3
:1004E000CF93DF93EC01162FA4E6B0E0A61BB10971
:1004F0009C0199DB6B017C0122E3C20ED11CE11C43
:10050000F11C9E01DE0183DB20ED822E27E0922E7E
:10051000A12CB12CA501940136DBDE018ADBA501FB
:10052000940131DBA12FB0E084DB6C0D7D1D8E1DAD
:100530009F1D24E630E040E050E025DBC901DF915B
:10054000CF911F91FF90EF90DF90CF90BF90AF9031
:100550009F908F9008959B018053984F68E270E0C0
:10056000FFDA6115710569F037FF09C088279927FF
:10057000821B930BACDF9195819591090895C90178
:10058000A6CFC90108958F929F92AF92BF92CF924A
:10059000DF92EF92FF920F931F93CF93DF93EA01C5
:1005A0007901FB01E81BF90B241B350BD801A81BB3
:1005B000B90B27DB9F01F7FF02C02F5F3F4F359537
:1005C00027958901330F220B330B600F711F821F98
:1005D000931F9F01FF0F440B550BF7DA4E01DD0F00
:1005E000AA08BB086701FF0CEE08FF08DA01C90181
:1005F000880D991DAA1DBB1DC816D906EA06FB0663
:1006000014F4D701C60188159905AA05BB0514F491
:10061000D501C401DF91CF911F910F91FF90EF9011
:10062000DF90CF90BF90AF909F908F9008950F93E1
:100630001F938A0120ED37E040E050E0A4DF1F91D6
:100640000F9108959B01DC01DCDA68517C4F8F4FDC
:100650009F4F20ED37E040E050E0B7DAC901089540
:100660000F931F93FC018B0182819381161617064D
:1006700044F0408151819C0160E070E080E398EF9C
:1006800007C024813581AC0160ED77E080E090E027
:100690007ADF1F910F9108954F925F926F927F9230
:1006A000AF92BF92CF92DF92EF92FF920F931F9380
:1006B000CF93DF93EC018B015C0186E0A80EB11CA7
:1006C000C12CD12C760120ED422E27E0522E612C38
:1006D000712C29913991F801A191B1918F0191DA91
:1006E000A301920172DAC20ED31EE41EF51ECA15D2
:1006F000DB0579F7F1EDCF16F7E0DF06E104F10451
:1007000084F480E3C81688EFD8068FEFE806F80671
:1007100074F480E3C82E88EFD82EEE24EA94FE2CE1
:1007200006C090EDC92E97E0D92EE12CF12CC60120
:10073000DF91CF911F910F91FF90EF90DF90CF90BD
:10074000BF90AF907F906F905F904F9008954091D1
:100750000204542F517029B136B14695852F90E08F
:10076000840F911D840F911DFC01ED5FFB4F3095AF
:1007700038702095257D232B2083552319F0259A49
:10078000219804C094B182E2892784B9E3E0F4E0BF
:1007900080E02FEF90812923892B329694E0EB3073
:1007A000F907C1F79091FE03922B89238093FE03F2
:1007B00020E030E080E04FEFF901ED5FFB4F9181E9
:1007C0004923892B2E5F3F4F28303105A9F790919F
:1007D000FF03942B89238093FF03809102048F5F92
:1007E000877080930204089585B18D7D85B9259A1F
:1007F00021988AB18A728AB98BB1856D8BB987B11C
:10080000887087B91092020408950F931F93609126
:10081000000470910104CB01A0E0B0E0BC015527B9
:1008200044278091FE039091FF03909301048093ED
:100830000004A0E0B0E08A019B01082B192B2A2BB1
:100840003B2BC901B8011F910F910895E0912E042F
:10085000F0E09F012F5F3F4F2F70332720932E042E
:10086000EE0FFF1FE55FFB4F808391830895CF93C9
:10087000DF93EB0120912E0420932F04E7DFCE01BC
:10088000DF91CF91E3CF18BC10922C0410922B046F
:1008900010922D0410922E0410922F0488BD0895FA
:1008A0000F931F93CF93DF93082F80912E04809393
:1008B0002F04EB0110E0101729F089919991C6DF00
:1008C0001F5FF9CFDF91CF911F910F91089583E3BF
:1008D00084BD83E085BD559A18BC10922C041092FB
:1008E0002B0410922D0410922E0410922F040895C0
:1008F00080912B0490912C04009791F00197909394
:100900002C0480932B04892B71F590912E048091F7
:100910002D04981328C080912F04891322C023C06E
:10092000E0912D0480912E048E17E9F0F0E0EE0F97
:10093000FF1FE55FFB4F808188BD80912D0490E013
:10094000FC01EE0FFF1FE55FFB4F21814AE0249F72
:100950009001112430932C0420932B0401968F7066
:10096000992780932D04089580E880936100109268
:100970006100109260007ADB37DFA9DF28D48BDCBE
:1009800093DDFED27894DBD4D7D080E0909105033C
:10099000992319F0109205038F5F8530B8F30895FD
:1009A000E3DF33DF6B017C01CB01D7D8882351F023
:1009B00060919A0270919B028091980290919902A5
:1009C00056DF27C0C0FE10C081E0ABD26AE783E0EB
:1009D00054DC60910A0270910B02809108029091A0
:1009E000090245DFC2E016C0D0FE0DC081E0A3D2EF
:1009F00060E072E084E054DF6CE472E087E06ADC7F
:100A0000C0E0D1E008C080E83EDF6CE472E087E03F
:100A100061DCC0E0D0E0412C512C320100910A028F
:100A200010910B02A0900802B0900902809105037A
:100A30008823C1F01092050317D180E041D27C01D8
:100A400060E053D2DD24D3948D2D3AD26D2D4DD25A
:100A5000D39426E0D212F8CF05D34E0C5F1C611C54
:100A6000711CE4CFD2DE6B017C01CB0155D8DD23B4
:100A7000F9F0C701AA27BB27B701A6016627772788
:100A800084279527A627B727B701A60144275170C9
:100A90006627772784239523A623B723892B8A2BC0
:100AA0008B2B31F080E047D280E8EDDED0E01CC037
:100AB000C701B60148D0CC23B9F0C23049F4C0FC1C
:100AC00013C0B801C501D3DE64E272E08AE002DC43
:100AD000C8DB81112FC080E024D280E8D4DE6CE432
:100AE00072E087E0F7DBC0E084E0FADA8D33924011
:100AF00038F4B7DB811104C06CE172E082E0EADB1C
:100B00002091BD0330E0A1EDB5EB81D861157105F1
:100B10008105910509F48ACF641575058605970549
:100B200008F084CF9EDB811181CF6CE072E084E01D
:100B3000D1DB7CCFC1E0D8CF1092320410923104C7
:100B40001092300408958F929F92AF92BF92CF92ED
:100B5000DF92EF92FF924B015C016501EE24FF24CE
:100B6000D501C401AA27BB27C826D926EA26FB2619
:100B7000C820D920EA20FB20C4FE02C080E0D3D2E6
:100B8000D4FE02C080E0F9D2D2FE02C081E0CBD216
:100B9000C2FE02C081E0F1D2C7FE02C082E0C3D231
:100BA000D7FE02C082E0E9D2C6FE02C083E0BBD21B
:100BB000D6FE02C083E0E1D2D0FE2AC0809132048A
:100BC0008F5F81708093320479EF811174E862E065
:100BD0008DE790E06ADB80913004882349F06091D2
:100BE0006A0270916B0280916802909169020CC058
:100BF00080913204882351F060916E0270916F02EF
:100C000080916C0290916D0232DE02C080E83BDE82
:100C10008091B603811112C0D501C401817099275A
:100C2000AA27BB27282F217020933104892B8A2BD8
:100C30008B2B89F062E07BE28FE00BC0C0FE0BC023
:100C40009091300481E089278093300462E070EB5A
:100C50008DE790E02ADBFF90EF90DF90CF90BF9080
:100C6000AF909F908F9008951F93CF93DF9300D004
:100C700000D000D0CDB7DEB781E020D2E0913204C1
:100C800016E01E9FF0011124EE54FC4FBC01808938
:100C9000918961DCE09132041E9FF0011124EE5431
:100CA000FC4FBC01848D958DCDDC9A83898382E0D5
:100CB00005D2E09132041E9FF0011124EE54FC4F46
:100CC000BC018289938947DCE09132041E9FF001C8
:100CD0001124EE54FC4FBC01868D978DB3DC9C83B0
:100CE0008B8383E0EBD1E09132041E9FF00111244D
:100CF000EE54FC4FBC01848995892DDCE0913204CF
:100D00001E9FF0011124EE54FC4FBC0180A191A163
:100D100099DC9E838D838091B603813031F008F495
:100D200047C0823009F473C0C1C080913004811182
:100D30000CC0C4D120913204129F90011124BC0137
:100D4000C9018A519C4F8CDC02C080E398EF9093DC
:100D500034048093330489819A819093360480937C
:100D600035048B819C8190933804809337048D8166
:100D70009E8190933A0480933904E0913204F0E02C
:100D8000EE0FFF1FE254FC4F8081918190933C0451
:100D900080933B0480E092D12091320446E0249F6E
:100DA00090011124BC01C90186529C4F59DC7AC0C4
:100DB00080E084D1909334048093330489819A81B4
:100DC00090933604809335048B819C8190933804F2
:100DD000809337048D819E8190933A0480933904E7
:100DE000E0913204F0E0EE0FFF1FE254FC4F8081EF
:100DF000918190933C0480933B0480913104811154
:100E000003C080EC99EF4EC080E496E04BC080E0D8
:100E100055D1909334048093330460913204169F2B
:100E2000B001112466527C4FCE01019635DC9093BF
:100E300036048093350460913204169FB00111246A
:100E40006A517C4FCE01019627DC90933804809341
:100E500037048D819E8190933A0480933904809168
:100E60003004811103C080EC99EF02C080E496E069
:100E700090933C0480933B046091320486E0689F29
:100E8000B00111246E507C4FCE01019605DCE0913B
:100E90003204F0E0EE0FFF1FE254FC4F208131815D
:100EA000820F931F90933E0480933D0426960FB6C5
:100EB000F894DEBF0FBECDBFDF91CF911F91089593
:100EC0000F931F93880F990BFC01ED5CFB4F008182
:100ED00011812FEF33E040E050E060ED77E080E3F8
:100EE00098EF51DB1F910F910895663098F48115AA
:100EF00024E092072CF497FF05C080E090E002C048
:100F00008FEF93E0E62FF0E0EE0FFF1FE352FD4F6F
:100F10009183808308958093EA0208958093EB0281
:100F200008959091EA02882311F0906801C09F779C
:100F30009093EA0208959091EA02882311F090625A
:100F400001C09F7D9093EA020895ADEDB2E0ECEE12
:100F5000F2E080E090E03C9111962C91119712966E
:100F6000422F437031839C01220F331F220F331F06
:100F7000242B2083019632968630910561F70895DF
:100F80001092E9021092DC0281E090E09093C5009B
:100F90008093C40088E08093C10086E08093C20003
:100FA000EDEDF2E080E092E0918380839383828391
:100FB00095838483978386839187808793878287AD
:100FC000EAEEF2E08091B7038083809198038183F9
:100FD000BCCF1F920F920FB60F9211248F93EF93F5
:100FE000FF938091C000E091E90285FF0DC0EE23E0
:100FF00091F081E08E0F8093E902F0E0E651FD4F21
:1010000080818093C600EDCFEE3029F48091C1003D
:101010008F7D8093C100FF91EF918F910F900FBE54
:101020000F901F90189581E08093E9028091EA0269
:101030008093C6008091C00085FF0EC0E091E90258
:10104000EE2351F081E08E0F8093E902F0E0E6514B
:10105000FD4F80818093C6008091C10080628093A3
:10106000C100089572DF81E08093DC020895CF9380
:101070002091970394E0299F90011124280F311D9E
:10108000F901E059FD4FC0818C2F2AD8AC0186E0D0
:10109000C89FF0011124ED56FC4F8185928584177D
:1010A000950744F0BC0187819085C1DA805D974047
:1010B000CF91089563857485CF91B9CACF93E0919C
:1010C000970324E0E29FF0011124E80FF11DE0599D
:1010D000FD4FC081CCDFAC01EC2FF0E0EE54FC4FB3
:1010E00097812CEE9202C0011124841795073CF0E1
:1010F000BC0180E398EF9BDA805D974003C060ED10
:1011000077E095DAC83068F42091990330E002C0A6
:1011100035952795CA95E2F720FF03C091958195F3
:101120009109CF910895CF93DF93C82FD0E0CE548B
:10113000DC4F8F818F5F8F83982F990F90559093FD
:1011400009018F3134F08EE18F8368E071E082E035
:10115000C1D88F81811105C060E071E082E0BAD80A
:1011600009C0609108017091090180910A01909174
:101170000B019BD8DF91CF910BC9CF93DF93C82F81
:10118000D0E0CE54DC4F8F8181508F83982F990F00
:10119000905590930901823E34F482EE8F8368E08B
:1011A00071E082E097D88F81811105C060E071E025
:1011B00082E090D809C06091080170910901809186
:1011C0000A0190910B0171D8DF91CF91E1C8109283
:1011D000410410924204109243041092440410926D
:1011E000400410923F0481E08093810010928000BF
:1011F0008CEE9AE090938B0080938A0082E690E1D7
:10120000909389008093880086E080936F00089512
:101210001F920F920FB60F9211242F933F934F936B
:101220005F936F937F938F939F93AF93BF93EF934E
:10123000FF9380918A0090918B008451954F9093F9
:101240008B0080938A0040D7882321F08091DC02B4
:101250008111E9DE7CDAFF91EF91BF91AF919F910F
:101260008F917F916F915F914F913F912F910F904F
:101270000FBE0F901F9018951F920F920FB60F92EE
:1012800011242F933F934F935F936F937F938F938B
:101290009F93AF93BF93EF93FF93809141049091FD
:1012A0004204A0914304B09144040196A11DB11DD4
:1012B0008093410490934204A0934304B093440468
:1012C00080913F0490914004805D9E4F9093400434
:1012D00080933F04883E9340ACF0809188009091C9
:1012E00089008F599F4E9093890080938800809148
:1012F0003F0490914004885E934090934004809313
:101300003F040AC080918800909189008E599F4EB9
:101310009093890080938800F4D7EADAFF91EF91E7
:10132000BF91AF919F918F917F916F915F914F91FD
:101330003F912F910F900FBE0F901F901895109214
:10134000F9021092F802089580914504843159F011
:1013500020F4813181F482E009C0813431F0843499
:1013600051F480E003C081E001C083E04FD881E008
:101370008093F902089580E00895AF92BF92CF92D2
:10138000DF92EF92FF920F931F93CF93DF938091A1
:101390004504813209F478C048F4823149F184313E
:1013A000F1F0813109F076C080E06FC0813409F43A
:1013B00069C070F4843209F06DC06CEA72E083E0B9
:1013C00089D760E872E082E06BDAD0E0C0E053C019
:1013D000823461F0843409F05DC061E001C060E0F6
:1013E00084E0E3D781E08093F90255C061E001C059
:1013F00060E085E0F6CF6C01EE24FF248B019C01B8
:1014000022273327C026D126E226F326C622D7225A
:10141000E822F922C4FE20C0AC2EAA0CBB0800E0D2
:1014200010E0D0E08D2F5CD6F801EA0DFB1DED56E3
:10143000FC4F90878783DF5F0A5F1F4FD43091F79F
:10144000CF5F8C2F880F60E872E08E5F29DA60ED45
:1014500072E083E03FD7D1E0D6FE0BC0CF5F6CEAED
:1014600072E083E037D78C2F880F60E872E08E5FE0
:1014700017DAC3301CF4C9D963FDBDCF81E0DD2389
:1014800051F0B1CF81E001C082E0B1D781E080931B
:10149000F80201C080E0DF91CF911F910F91FF9082
:1014A000EF90DF90CF90BF90AF9008954F925F92F2
:1014B0006F927F929F92AF92BF92CF92DF92EF9204
:1014C000FF920F931F93CF93DF93C82E5B016CEABB
:1014D00072E083E0FFD660E872E082E0E1D910E0DC
:1014E000912CD12CC92D092C000CDD0BCC15DD0560
:1014F0000CF08FC08AD963FF8CC09C01442755270C
:101500002B013C0166247724422653266426752647
:10151000462257226822792244FE14C0CC0FDD1FD8
:10152000CA0DDB1D80E0A3DD99838883939460ED71
:1015300072E083E0CFD6892D880F60E872E08E5F7D
:10154000AFD911E056FE0BC093946CEA72E083E0D1
:10155000C1D6892D880F60E872E08E5FA1D9C92DB0
:10156000092C000CDD0B47FE2AC07E01EE0CFF1C8F
:10157000EA0CFB1CF701008111810C591F4F013D42
:10158000F7E01F073CF060E171E082E0A3D600EDD8
:1015900017E011C00115110529F460E071E082E047
:1015A00099D609C0609110017091110180911201CA
:1015B000909113017AD6F7011183008311E057FE51
:1015C00091CFCC0FDD1FCA0DDB1D08811981045698
:1015D00011090033F8EF1F073CF460E171E082E08D
:1015E00079D600E318EF11C00115110529F460E068
:1015F00071E082E06FD609C0609110017091110115
:10160000809112019091130150D61983088311E043
:1016100069CF812FDF91CF911F910F91FF90EF90B4
:10162000DF90CF90BF90AF909F907F906F905F9032
:101630004F900895809146048431B1F118F48131BE
:1016400039F05BC0813479F1843409F056C07CCE26
:10165000809145048132E9F048F48231B9F0843157
:10166000D1F0813109F049C082E018C08134A9F07D
:1016700028F4843209F041C080E009C0823421F0AE
:101680008434D9F580E00AC088E101C080E1ACD69D
:1016900026C0DDD604C081E001C083E0A2D681E08F
:1016A0008093F902089569CE80914504843189F0D0
:1016B00038F48131D9F0823101F562EF73E00BC06B
:1016C0008234B9F0843479F08134B9F46EEC73E08B
:1016D00002C06AED73E086E0E9DE882371F081E004
:1016E0008093F802089566EE73E0F5CF62EC73E044
:1016F000F2CF6EEB73E082E0EFCF80E00895EF92DF
:10170000FF920F931F93CF93DF9380E0E9D47C0186
:1017100081E0E6D48C0182E0E3D4EC0183E0E0D404
:10172000AC0181E09FEFE916F10408F080E0E114DC
:1017300093E0F90610F420E001C024E0282BFA948D
:101740009FEFE91691E0F90610F080E001C082E019
:10175000322F382B0F3F110530F090E0011583E058
:10176000180720F401C090E120E001C020E41A95A0
:101770000F3F114010F080E001C080E2232B922B3C
:10178000982B9093460481E0CF3FD10508F080E08C
:10179000C11593E0D90710F420E001C024E0282B04
:1017A000DA95CF3FD14010F080E001C082E0322FC7
:1017B000382B4F3F510530F0411593E0590728F47D
:1017C00090E001C090E120E002C090E020E45A9552
:1017D0004F3F514010F080E001C080E2232B922B5C
:1017E000982B90934504DF91CF911F910F91FF901B
:1017F000EF900895CF92DF92EF92FF92CF93BC01CA
:10180000C0904104D0904204E0904304F09044041E
:101810006031710509F04FC08091410490914204FC
:10182000A0914304B09144048C199D09AE09BF09ED
:10183000893E9340A105B10598F16038710521F109
:1018400058F460317105E9F06034710521F16430BC
:10185000710531F561E01BC0611580E1780779F011
:1018600028F461157440E1F460E011C0611520E4D2
:10187000720779F06115704899F461E006C061E083
:1018800001C060E080E009C060E082E006C081E065
:1018900004C061E001C060E083E087D5C1E001C021
:1018A000C0E0B3D7CC2309F4B3CF60ED72E083E09E
:1018B00011D55AD520C0611520E1720709F4ACCFCB
:1018C0006038710509F4A8CF611580E8780709F43C
:1018D000A3CF611524E0720709F49ECF643071052F
:1018E00009F49ACF6034710509F496CF611580E44C
:1018F000780709F491CF03DF8091990384FD02C03A
:10190000C0E010C0809146048434D1F71DDDC82F9B
:101910008823B1F364EC72E083E0DCD425D5A1D454
:101920008111FDCF8C2FCF91FF90EF90DF90CF9062
:1019300008952F923F924F925F926F927F928F9273
:101940009F92AF92BF92CF92DF92EF92FF920F934E
:101950001F93CF93DF9300D01F92CDB7DEB755D73B
:101960002B013C018091F902811104C09090F80292
:10197000892D02C081E090E0282F2170922E809165
:101980009A0290919B029B838A8300919802109106
:101990009902BC01C8016BD721E0298320909E02E7
:1019A00030909F02A0909C02B0909D0243FE9DC08B
:1019B0002CD72B013C01A3DE29812223C9F03ADE7A
:1019C000882351F060ED72E083E084D4B101C50159
:1019D0004ED79924939427C068EB72E083E07AD4C1
:1019E0006A817B81C80143D73CD48111FDCF1BC0E4
:1019F0009920C9F042FE17C064EC72E083E06AD41B
:101A00008091F902882319F0AFD41092F9028091E5
:101A1000F802882319F0AFD41092F8026A817B8112
:101A2000C80125D7912C6301EE24FF24D301C20104
:101A3000AA27BB27C826D926EA26FB26C420D520FC
:101A4000E620F720D701C60124E0B695A795979523
:101A500087952A95D1F7282F21702983C7FE23C0A7
:101A60008090BD03912C8FE0880E911C9FEF89160A
:101A7000910449F044F060E171E082E02BD48824C5
:101A80008A94912C09C0609110017091110180918C
:101A900012019091130109D48092BD03E1E0E0931B
:101AA000F80299249394D7FE81CFE090BD03F12CE6
:101AB000FFE0EF1AF108F7FE07C060E171E082E095
:101AC00009D4E12CF12C09C0609114017091150129
:101AD0008091160190911701E8D3E092BD0321E0B7
:101AE0002093F8029924939461CF892D0F900F9041
:101AF0000F90DF91CF911F910F91FF90EF90DF90AA
:101B0000CF90BF90AF909F908F907F906F905F909D
:101B10004F903F902F90089583FF1EC080919903AE
:101B200085FF1AC080E0A3DA84329A4F74F401DF93
:101B3000882349F060919A0270919B0280919802EB
:101B40009091990294C680E89EC68BD3811104C0FF
:101B500060EA72E083E0BEC3089583FDEACE4ACE18
:101B600097FB072E16F4009406D077FD08D06BD0B3
:101B700007FC05D03EF4909581959F4F0895709590
:101B800061957F4F0895A1E21A2EAA1BBB1BFD0190
:101B90000DC0AA1FBB1FEE1FFF1FA217B307E4074C
:101BA000F50720F0A21BB30BE40BF50B661F771FA4
:101BB000881F991F1A9469F7609570958095909584
:101BC0009B01AC01BD01CF010895052E97FB16F4D2
:101BD00000940FD057FD05D0D6DF07FC02D046F4A5
:101BE00008C050954095309521953F4F4F4F5F4F1E
:101BF000089590958095709561957F4F8F4F9F4F79
:101C0000089505D0332312F48A1B9B0B0DC0A29FAD
:101C1000B001B39FC001A39F01D0B29F700D811D81
:101C20001124911D0895F3DFB7FF0895821B930BD4
:101C30000895EDDFA59F900DB49F900DA49F800D9A
:101C4000911D11240895AA1BBB1B51E107C0AA1FB7
:101C5000BB1FA617B70710F0A61BB70B881F991F4D
:101C60005A95A9F780959095BC01CD010895DC01A6
:101C7000CB01FC01F999FECF06C0F2BDE1BDF89A97
:101C8000319600B40D9241505040B8F70895DC01F0
:101C9000A40FB51F4150504040F0CB01840F951F59
:101CA0002E9105D041505040D8F70895262FF9992C
:101CB000FECF92BD81BDF89A019700B4021639F0AB
:101CC0001FBA20BD0FB6F894FA9AF99A0FBE08957C
:041CD000F894FFCFB6
:101CD40002B0F40103BAF40102B07D0003FA7D00FE
:101CE40003FA7D0003C67D000504000105024F4D83
:101CF400001800000000005AC1F9400630F830F81E
:101D040030F830F830F830F8400640064006400617
:101D14004006400600000000000000000000000033
:101D240000000000000000000000000000000000AF
:101D3400000000000000000005024F4D01180000E3
:101D44000000005A00000000E0FCE0FC88FAE0FC1F
:101D5400E0FC88FA10041004B004B004B004A00538
:101D640021FE0000000561FA0000A005C1F9000091
:101D7400A005A005A005A0050000000000000000CB
:101D84000000000005024F4D0218000000000096FC
:101D940000000000E0FCE0FC88FAE0FCE0FC88FACB
:101DA40010041004B004B004B004A005D00700006F
:101DB4000000D007000000000000D0070000000071
:101DC400D007000031F80000000031F800000000E6
:101DD400C814000AC8140096C814001402DE3200A5
:101DE40000003200036232000000B80B02623200CD
:101DF4000000D00703FA64000000E80303C664008F
:101E04000000E80303A664000000E803037A64000A
:101E14000000E803035364000000E803037A3E0073
:101E2400036F3E0003623E00035D3E0003533E0029
:101E340003493E0003423E00C8140014C83C003C61
:101E44000203000100030201020100030001020376
:101E540000C8FF0A000AFF0A000AFF0A000AFF0A74
:101E6400000AFF0A000AFF0A0032C846C80A000A2C
:101E740003FA280002F928000000C80002BB7D0014
:101E84000000FA0003BA7D0003FA900100009001FB
:101E9400037A900102BBFA000349FA0002F9FA003E
:0C1EA40003F9FA00036FFA0003FAFA00D9
:00000001FF
